{
  "_format": "hh-sol-artifact-1",
  "contractName": "NFT",
  "sourceName": "contracts/NFT.sol",
  "abi": [
    {
      "inputs": [],
      "stateMutability": "nonpayable",
      "type": "constructor"
    },
    {
      "anonymous": false,
      "inputs": [
        {
          "indexed": true,
          "internalType": "address",
          "name": "owner",
          "type": "address"
        },
        {
          "indexed": true,
          "internalType": "address",
          "name": "approved",
          "type": "address"
        },
        {
          "indexed": true,
          "internalType": "uint256",
          "name": "tokenId",
          "type": "uint256"
        }
      ],
      "name": "Approval",
      "type": "event"
    },
    {
      "anonymous": false,
      "inputs": [
        {
          "indexed": true,
          "internalType": "address",
          "name": "owner",
          "type": "address"
        },
        {
          "indexed": true,
          "internalType": "address",
          "name": "operator",
          "type": "address"
        },
        {
          "indexed": false,
          "internalType": "bool",
          "name": "approved",
          "type": "bool"
        }
      ],
      "name": "ApprovalForAll",
      "type": "event"
    },
    {
      "anonymous": false,
      "inputs": [
        {
          "indexed": true,
          "internalType": "address",
          "name": "previousOwner",
          "type": "address"
        },
        {
          "indexed": true,
          "internalType": "address",
          "name": "newOwner",
          "type": "address"
        }
      ],
      "name": "OwnershipTransferred",
      "type": "event"
    },
    {
      "anonymous": false,
      "inputs": [
        {
          "indexed": true,
          "internalType": "address",
          "name": "from",
          "type": "address"
        },
        {
          "indexed": true,
          "internalType": "address",
          "name": "to",
          "type": "address"
        },
        {
          "indexed": true,
          "internalType": "uint256",
          "name": "tokenId",
          "type": "uint256"
        }
      ],
      "name": "Transfer",
      "type": "event"
    },
    {
      "inputs": [
        {
          "internalType": "address",
          "name": "to",
          "type": "address"
        },
        {
          "internalType": "uint256",
          "name": "tokenId",
          "type": "uint256"
        }
      ],
      "name": "approve",
      "outputs": [],
      "stateMutability": "nonpayable",
      "type": "function"
    },
    {
      "inputs": [
        {
          "internalType": "address",
          "name": "owner",
          "type": "address"
        }
      ],
      "name": "balanceOf",
      "outputs": [
        {
          "internalType": "uint256",
          "name": "",
          "type": "uint256"
        }
      ],
      "stateMutability": "view",
      "type": "function"
    },
    {
      "inputs": [
        {
          "internalType": "uint256",
          "name": "tokenId",
          "type": "uint256"
        }
      ],
      "name": "getApproved",
      "outputs": [
        {
          "internalType": "address",
          "name": "",
          "type": "address"
        }
      ],
      "stateMutability": "view",
      "type": "function"
    },
    {
      "inputs": [
        {
          "internalType": "address",
          "name": "owner",
          "type": "address"
        },
        {
          "internalType": "address",
          "name": "operator",
          "type": "address"
        }
      ],
      "name": "isApprovedForAll",
      "outputs": [
        {
          "internalType": "bool",
          "name": "",
          "type": "bool"
        }
      ],
      "stateMutability": "view",
      "type": "function"
    },
    {
      "inputs": [
        {
          "internalType": "string",
          "name": "tokenURI",
          "type": "string"
        }
      ],
      "name": "mintProperty",
      "outputs": [
        {
          "internalType": "uint256",
          "name": "",
          "type": "uint256"
        }
      ],
      "stateMutability": "nonpayable",
      "type": "function"
    },
    {
      "inputs": [],
      "name": "name",
      "outputs": [
        {
          "internalType": "string",
          "name": "",
          "type": "string"
        }
      ],
      "stateMutability": "view",
      "type": "function"
    },
    {
      "inputs": [],
      "name": "owner",
      "outputs": [
        {
          "internalType": "address",
          "name": "",
          "type": "address"
        }
      ],
      "stateMutability": "view",
      "type": "function"
    },
    {
      "inputs": [
        {
          "internalType": "uint256",
          "name": "tokenId",
          "type": "uint256"
        }
      ],
      "name": "ownerOf",
      "outputs": [
        {
          "internalType": "address",
          "name": "",
          "type": "address"
        }
      ],
      "stateMutability": "view",
      "type": "function"
    },
    {
      "inputs": [],
      "name": "renounceOwnership",
      "outputs": [],
      "stateMutability": "nonpayable",
      "type": "function"
    },
    {
      "inputs": [
        {
          "internalType": "address",
          "name": "from",
          "type": "address"
        },
        {
          "internalType": "address",
          "name": "to",
          "type": "address"
        },
        {
          "internalType": "uint256",
          "name": "tokenId",
          "type": "uint256"
        }
      ],
      "name": "safeTransferFrom",
      "outputs": [],
      "stateMutability": "nonpayable",
      "type": "function"
    },
    {
      "inputs": [
        {
          "internalType": "address",
          "name": "from",
          "type": "address"
        },
        {
          "internalType": "address",
          "name": "to",
          "type": "address"
        },
        {
          "internalType": "uint256",
          "name": "tokenId",
          "type": "uint256"
        },
        {
          "internalType": "bytes",
          "name": "data",
          "type": "bytes"
        }
      ],
      "name": "safeTransferFrom",
      "outputs": [],
      "stateMutability": "nonpayable",
      "type": "function"
    },
    {
      "inputs": [
        {
          "internalType": "address",
          "name": "operator",
          "type": "address"
        },
        {
          "internalType": "bool",
          "name": "approved",
          "type": "bool"
        }
      ],
      "name": "setApprovalForAll",
      "outputs": [],
      "stateMutability": "nonpayable",
      "type": "function"
    },
    {
      "inputs": [
        {
          "internalType": "bytes4",
          "name": "interfaceId",
          "type": "bytes4"
        }
      ],
      "name": "supportsInterface",
      "outputs": [
        {
          "internalType": "bool",
          "name": "",
          "type": "bool"
        }
      ],
      "stateMutability": "view",
      "type": "function"
    },
    {
      "inputs": [],
      "name": "symbol",
      "outputs": [
        {
          "internalType": "string",
          "name": "",
          "type": "string"
        }
      ],
      "stateMutability": "view",
      "type": "function"
    },
    {
      "inputs": [
        {
          "internalType": "uint256",
          "name": "tokenId",
          "type": "uint256"
        }
      ],
      "name": "tokenURI",
      "outputs": [
        {
          "internalType": "string",
          "name": "",
          "type": "string"
        }
      ],
      "stateMutability": "view",
      "type": "function"
    },
    {
      "inputs": [],
      "name": "totalsupply",
      "outputs": [
        {
          "internalType": "uint256",
          "name": "",
          "type": "uint256"
        }
      ],
      "stateMutability": "view",
      "type": "function"
    },
    {
      "inputs": [
        {
          "internalType": "address",
          "name": "from",
          "type": "address"
        },
        {
          "internalType": "address",
          "name": "to",
          "type": "address"
        },
        {
          "internalType": "uint256",
          "name": "tokenId",
          "type": "uint256"
        }
      ],
      "name": "transferFrom",
      "outputs": [],
      "stateMutability": "nonpayable",
      "type": "function"
    },
    {
      "inputs": [
        {
          "internalType": "address",
          "name": "newOwner",
          "type": "address"
        }
      ],
      "name": "transferOwnership",
      "outputs": [],
      "stateMutability": "nonpayable",
      "type": "function"
    }
  ],
  "bytecode": "0x60806040523480156200001157600080fd5b50604051806040016040528060098152602001684554484d756d62616960b81b815250604051806040016040528060048152602001634554484d60e01b81525081600090816200006291906200018f565b5060016200007182826200018f565b5050506200008e620000886200009460201b60201c565b62000098565b6200025b565b3390565b600780546001600160a01b038381166001600160a01b0319831681179093556040519116919082907f8be0079c531659141344cd1fd0a4f28419497f9722a3daafe3b4186f6b6457e090600090a35050565b634e487b7160e01b600052604160045260246000fd5b600181811c908216806200011557607f821691505b6020821081036200013657634e487b7160e01b600052602260045260246000fd5b50919050565b601f8211156200018a57600081815260208120601f850160051c81016020861015620001655750805b601f850160051c820191505b81811015620001865782815560010162000171565b5050505b505050565b81516001600160401b03811115620001ab57620001ab620000ea565b620001c381620001bc845462000100565b846200013c565b602080601f831160018114620001fb5760008415620001e25750858301515b600019600386901b1c1916600185901b17855562000186565b600085815260208120601f198616915b828110156200022c578886015182559484019460019091019084016200020b565b50858210156200024b5787850151600019600388901b60f8161c191681555b5050505050600190811b01905550565b611a8d806200026b6000396000f3fe608060405234801561001057600080fd5b50600436106101365760003560e01c806372dd529b116100b2578063b88d4fde11610081578063d850c94c11610066578063d850c94c14610274578063e985e9c514610287578063f2fde38b146102c357600080fd5b8063b88d4fde1461024e578063c87b56dd1461026157600080fd5b806372dd529b1461021a5780638da5cb5b1461022257806395d89b4114610233578063a22cb4651461023b57600080fd5b806323b872dd116101095780636352211e116100ee5780636352211e146101de57806370a08231146101f1578063715018a61461021257600080fd5b806323b872dd146101b857806342842e0e146101cb57600080fd5b806301ffc9a71461013b57806306fdde0314610163578063081812fc14610178578063095ea7b3146101a3575b600080fd5b61014e610149366004611555565b6102d6565b60405190151581526020015b60405180910390f35b61016b610373565b60405161015a91906115c2565b61018b6101863660046115d5565b610405565b6040516001600160a01b03909116815260200161015a565b6101b66101b136600461160a565b61042c565b005b6101b66101c6366004611634565b610580565b6101b66101d9366004611634565b6105f7565b61018b6101ec3660046115d5565b610612565b6102046101ff366004611670565b610677565b60405190815260200161015a565b6101b6610711565b610204610725565b6007546001600160a01b031661018b565b61016b610735565b6101b661024936600461168b565b610744565b6101b661025c366004611753565b610753565b61016b61026f3660046115d5565b6107d1565b6102046102823660046117cf565b6108e1565b61014e610295366004611818565b6001600160a01b03918216600090815260056020908152604080832093909416825291909152205460ff1690565b6101b66102d1366004611670565b610912565b60006001600160e01b031982167f80ac58cd00000000000000000000000000000000000000000000000000000000148061033957506001600160e01b031982167f5b5e139f00000000000000000000000000000000000000000000000000000000145b8061036d57507f01ffc9a7000000000000000000000000000000000000000000000000000000006001600160e01b03198316145b92915050565b6060600080546103829061184b565b80601f01602080910402602001604051908101604052809291908181526020018280546103ae9061184b565b80156103fb5780601f106103d0576101008083540402835291602001916103fb565b820191906000526020600020905b8154815290600101906020018083116103de57829003601f168201915b5050505050905090565b6000610410826109a2565b506000908152600460205260409020546001600160a01b031690565b600061043782610612565b9050806001600160a01b0316836001600160a01b0316036104c55760405162461bcd60e51b815260206004820152602160248201527f4552433732313a20617070726f76616c20746f2063757272656e74206f776e6560448201527f720000000000000000000000000000000000000000000000000000000000000060648201526084015b60405180910390fd5b336001600160a01b03821614806104ff57506001600160a01b038116600090815260056020908152604080832033845290915290205460ff165b6105715760405162461bcd60e51b815260206004820152603d60248201527f4552433732313a20617070726f76652063616c6c6572206973206e6f7420746f60448201527f6b656e206f776e6572206f7220617070726f76656420666f7220616c6c00000060648201526084016104bc565b61057b8383610a06565b505050565b61058a3382610a81565b6105ec5760405162461bcd60e51b815260206004820152602d60248201527f4552433732313a2063616c6c6572206973206e6f7420746f6b656e206f776e6560448201526c1c881bdc88185c1c1c9bdd9959609a1b60648201526084016104bc565b61057b838383610aff565b61057b83838360405180602001604052806000815250610753565b6000818152600260205260408120546001600160a01b03168061036d5760405162461bcd60e51b815260206004820152601860248201527f4552433732313a20696e76616c696420746f6b656e204944000000000000000060448201526064016104bc565b60006001600160a01b0382166106f55760405162461bcd60e51b815260206004820152602960248201527f4552433732313a2061646472657373207a65726f206973206e6f74206120766160448201527f6c6964206f776e6572000000000000000000000000000000000000000000000060648201526084016104bc565b506001600160a01b031660009081526003602052604090205490565b610719610d12565b6107236000610d6c565b565b600061073060085490565b905090565b6060600180546103829061184b565b61074f338383610dcb565b5050565b61075d3383610a81565b6107bf5760405162461bcd60e51b815260206004820152602d60248201527f4552433732313a2063616c6c6572206973206e6f7420746f6b656e206f776e6560448201526c1c881bdc88185c1c1c9bdd9959609a1b60648201526084016104bc565b6107cb84848484610e99565b50505050565b60606107dc826109a2565b600082815260066020526040812080546107f59061184b565b80601f01602080910402602001604051908101604052809291908181526020018280546108219061184b565b801561086e5780601f106108435761010080835404028352916020019161086e565b820191906000526020600020905b81548152906001019060200180831161085157829003601f168201915b50505050509050600061088c60408051602081019091526000815290565b9050805160000361089e575092915050565b8151156108d05780826040516020016108b8929190611885565b60405160208183030381529060405292505050919050565b6108d984610f22565b949350505050565b60006108f1600880546001019055565b60006108fc60085490565b90506109083382610f96565b61036d818461113c565b61091a610d12565b6001600160a01b0381166109965760405162461bcd60e51b815260206004820152602660248201527f4f776e61626c653a206e6577206f776e657220697320746865207a65726f206160448201527f646472657373000000000000000000000000000000000000000000000000000060648201526084016104bc565b61099f81610d6c565b50565b6000818152600260205260409020546001600160a01b031661099f5760405162461bcd60e51b815260206004820152601860248201527f4552433732313a20696e76616c696420746f6b656e204944000000000000000060448201526064016104bc565b6000818152600460205260409020805473ffffffffffffffffffffffffffffffffffffffff19166001600160a01b0384169081179091558190610a4882610612565b6001600160a01b03167f8c5be1e5ebec7d5bd14f71427d1e84f3dd0314c0f7b2291e5b200ac8c7c3b92560405160405180910390a45050565b600080610a8d83610612565b9050806001600160a01b0316846001600160a01b03161480610ad457506001600160a01b0380821660009081526005602090815260408083209388168352929052205460ff165b806108d95750836001600160a01b0316610aed84610405565b6001600160a01b031614949350505050565b826001600160a01b0316610b1282610612565b6001600160a01b031614610b765760405162461bcd60e51b815260206004820152602560248201527f4552433732313a207472616e736665722066726f6d20696e636f72726563742060448201526437bbb732b960d91b60648201526084016104bc565b6001600160a01b038216610bf15760405162461bcd60e51b8152602060048201526024808201527f4552433732313a207472616e7366657220746f20746865207a65726f2061646460448201527f726573730000000000000000000000000000000000000000000000000000000060648201526084016104bc565b610bfe83838360016111de565b826001600160a01b0316610c1182610612565b6001600160a01b031614610c755760405162461bcd60e51b815260206004820152602560248201527f4552433732313a207472616e736665722066726f6d20696e636f72726563742060448201526437bbb732b960d91b60648201526084016104bc565b6000818152600460209081526040808320805473ffffffffffffffffffffffffffffffffffffffff199081169091556001600160a01b0387811680865260038552838620805460001901905590871680865283862080546001019055868652600290945282852080549092168417909155905184937fddf252ad1be2c89b69c2b068fc378daa952ba7f163c4a11628f55a4df523b3ef91a4505050565b6007546001600160a01b031633146107235760405162461bcd60e51b815260206004820181905260248201527f4f776e61626c653a2063616c6c6572206973206e6f7420746865206f776e657260448201526064016104bc565b600780546001600160a01b0383811673ffffffffffffffffffffffffffffffffffffffff19831681179093556040519116919082907f8be0079c531659141344cd1fd0a4f28419497f9722a3daafe3b4186f6b6457e090600090a35050565b816001600160a01b0316836001600160a01b031603610e2c5760405162461bcd60e51b815260206004820152601960248201527f4552433732313a20617070726f766520746f2063616c6c65720000000000000060448201526064016104bc565b6001600160a01b03838116600081815260056020908152604080832094871680845294825291829020805460ff191686151590811790915591519182527f17307eab39ab6107e8899845ad3d59bd9653f200f220920489ca2b5937696c31910160405180910390a3505050565b610ea4848484610aff565b610eb084848484611266565b6107cb5760405162461bcd60e51b815260206004820152603260248201527f4552433732313a207472616e7366657220746f206e6f6e20455243373231526560448201527f63656976657220696d706c656d656e746572000000000000000000000000000060648201526084016104bc565b6060610f2d826109a2565b6000610f4460408051602081019091526000815290565b90506000815111610f645760405180602001604052806000815250610f8f565b80610f6e846113bd565b604051602001610f7f929190611885565b6040516020818303038152906040525b9392505050565b6001600160a01b038216610fec5760405162461bcd60e51b815260206004820181905260248201527f4552433732313a206d696e7420746f20746865207a65726f206164647265737360448201526064016104bc565b6000818152600260205260409020546001600160a01b0316156110515760405162461bcd60e51b815260206004820152601c60248201527f4552433732313a20746f6b656e20616c7265616479206d696e7465640000000060448201526064016104bc565b61105f6000838360016111de565b6000818152600260205260409020546001600160a01b0316156110c45760405162461bcd60e51b815260206004820152601c60248201527f4552433732313a20746f6b656e20616c7265616479206d696e7465640000000060448201526064016104bc565b6001600160a01b0382166000818152600360209081526040808320805460010190558483526002909152808220805473ffffffffffffffffffffffffffffffffffffffff19168417905551839291907fddf252ad1be2c89b69c2b068fc378daa952ba7f163c4a11628f55a4df523b3ef908290a45050565b6000828152600260205260409020546001600160a01b03166111c65760405162461bcd60e51b815260206004820152602e60248201527f45524337323155524953746f726167653a2055524920736574206f66206e6f6e60448201527f6578697374656e7420746f6b656e00000000000000000000000000000000000060648201526084016104bc565b600082815260066020526040902061057b8282611902565b60018111156107cb576001600160a01b03841615611224576001600160a01b0384166000908152600360205260408120805483929061121e9084906119d8565b90915550505b6001600160a01b038316156107cb576001600160a01b0383166000908152600360205260408120805483929061125b9084906119eb565b909155505050505050565b60006001600160a01b0384163b156113b257604051630a85bd0160e11b81526001600160a01b0385169063150b7a02906112aa9033908990889088906004016119fe565b6020604051808303816000875af19250505080156112e5575060408051601f3d908101601f191682019092526112e291810190611a3a565b60015b611398573d808015611313576040519150601f19603f3d011682016040523d82523d6000602084013e611318565b606091505b5080516000036113905760405162461bcd60e51b815260206004820152603260248201527f4552433732313a207472616e7366657220746f206e6f6e20455243373231526560448201527f63656976657220696d706c656d656e746572000000000000000000000000000060648201526084016104bc565b805181602001fd5b6001600160e01b031916630a85bd0160e11b1490506108d9565b506001949350505050565b606060006113ca8361145d565b600101905060008167ffffffffffffffff8111156113ea576113ea6116c7565b6040519080825280601f01601f191660200182016040528015611414576020820181803683370190505b5090508181016020015b600019017f3031323334353637383961626364656600000000000000000000000000000000600a86061a8153600a850494508461141e57509392505050565b6000807a184f03e93ff9f4daa797ed6e38ed64bf6a1f01000000000000000083106114a6577a184f03e93ff9f4daa797ed6e38ed64bf6a1f010000000000000000830492506040015b6d04ee2d6d415b85acef810000000083106114d2576d04ee2d6d415b85acef8100000000830492506020015b662386f26fc1000083106114f057662386f26fc10000830492506010015b6305f5e1008310611508576305f5e100830492506008015b612710831061151c57612710830492506004015b6064831061152e576064830492506002015b600a831061036d5760010192915050565b6001600160e01b03198116811461099f57600080fd5b60006020828403121561156757600080fd5b8135610f8f8161153f565b60005b8381101561158d578181015183820152602001611575565b50506000910152565b600081518084526115ae816020860160208601611572565b601f01601f19169290920160200192915050565b602081526000610f8f6020830184611596565b6000602082840312156115e757600080fd5b5035919050565b80356001600160a01b038116811461160557600080fd5b919050565b6000806040838503121561161d57600080fd5b611626836115ee565b946020939093013593505050565b60008060006060848603121561164957600080fd5b611652846115ee565b9250611660602085016115ee565b9150604084013590509250925092565b60006020828403121561168257600080fd5b610f8f826115ee565b6000806040838503121561169e57600080fd5b6116a7836115ee565b9150602083013580151581146116bc57600080fd5b809150509250929050565b634e487b7160e01b600052604160045260246000fd5b600067ffffffffffffffff808411156116f8576116f86116c7565b604051601f8501601f19908116603f01168101908282118183101715611720576117206116c7565b8160405280935085815286868601111561173957600080fd5b858560208301376000602087830101525050509392505050565b6000806000806080858703121561176957600080fd5b611772856115ee565b9350611780602086016115ee565b925060408501359150606085013567ffffffffffffffff8111156117a357600080fd5b8501601f810187136117b457600080fd5b6117c3878235602084016116dd565b91505092959194509250565b6000602082840312156117e157600080fd5b813567ffffffffffffffff8111156117f857600080fd5b8201601f8101841361180957600080fd5b6108d9848235602084016116dd565b6000806040838503121561182b57600080fd5b611834836115ee565b9150611842602084016115ee565b90509250929050565b600181811c9082168061185f57607f821691505b60208210810361187f57634e487b7160e01b600052602260045260246000fd5b50919050565b60008351611897818460208801611572565b8351908301906118ab818360208801611572565b01949350505050565b601f82111561057b57600081815260208120601f850160051c810160208610156118db5750805b601f850160051c820191505b818110156118fa578281556001016118e7565b505050505050565b815167ffffffffffffffff81111561191c5761191c6116c7565b6119308161192a845461184b565b846118b4565b602080601f831160018114611965576000841561194d5750858301515b600019600386901b1c1916600185901b1785556118fa565b600085815260208120601f198616915b8281101561199457888601518255948401946001909101908401611975565b50858210156119b25787850151600019600388901b60f8161c191681555b5050505050600190811b01905550565b634e487b7160e01b600052601160045260246000fd5b8181038181111561036d5761036d6119c2565b8082018082111561036d5761036d6119c2565b60006001600160a01b03808716835280861660208401525083604083015260806060830152611a306080830184611596565b9695505050505050565b600060208284031215611a4c57600080fd5b8151610f8f8161153f56fea264697066735822122081f0a0459a2f17692cc98b6485b1fe1161dc8f7c92db8de1b1b2cb640d56d33264736f6c63430008140033",
  "linkReferences": {},
  "deployedLinkReferences": {}
}