{
  "_format": "hh-sol-artifact-1",
  "contractName": "Loans",
  "sourceName": "contracts/Loans.sol",
  "abi": [
    {
      "inputs": [
        {
          "internalType": "address",
          "name": "_borrower",
          "type": "address"
        },
        {
          "internalType": "address",
          "name": "_loanManager",
          "type": "address"
        },
        {
          "internalType": "uint256",
          "name": "_loanAmount",
          "type": "uint256"
        },
        {
          "internalType": "uint256",
          "name": "_interestRate",
          "type": "uint256"
        },
        {
          "internalType": "address",
          "name": "_nft",
          "type": "address"
        },
        {
          "internalType": "uint256",
          "name": "_nftid",
          "type": "uint256"
        },
        {
          "internalType": "uint256",
          "name": "_loanExpiration",
          "type": "uint256"
        }
      ],
      "stateMutability": "nonpayable",
      "type": "constructor"
    },
    {
      "anonymous": false,
      "inputs": [
        {
          "indexed": true,
          "internalType": "address",
          "name": "borrower",
          "type": "address"
        },
        {
          "indexed": false,
          "internalType": "uint256",
          "name": "amountPaid",
          "type": "uint256"
        },
        {
          "indexed": false,
          "internalType": "uint256",
          "name": "remainingAmount",
          "type": "uint256"
        }
      ],
      "name": "LoanPaid",
      "type": "event"
    },
    {
      "inputs": [],
      "name": "ADDRESSES_PROVIDER",
      "outputs": [
        {
          "internalType": "contract IPoolAddressesProvider",
          "name": "",
          "type": "address"
        }
      ],
      "stateMutability": "view",
      "type": "function"
    },
    {
      "inputs": [],
      "name": "GHO_TOKEN",
      "outputs": [
        {
          "internalType": "address",
          "name": "",
          "type": "address"
        }
      ],
      "stateMutability": "view",
      "type": "function"
    },
    {
      "inputs": [],
      "name": "NFTId",
      "outputs": [
        {
          "internalType": "uint256",
          "name": "",
          "type": "uint256"
        }
      ],
      "stateMutability": "view",
      "type": "function"
    },
    {
      "inputs": [],
      "name": "POOL",
      "outputs": [
        {
          "internalType": "contract IPool",
          "name": "",
          "type": "address"
        }
      ],
      "stateMutability": "view",
      "type": "function"
    },
    {
      "inputs": [],
      "name": "approvedai",
      "outputs": [
        {
          "internalType": "bool",
          "name": "",
          "type": "bool"
        }
      ],
      "stateMutability": "nonpayable",
      "type": "function"
    },
    {
      "inputs": [],
      "name": "borrower",
      "outputs": [
        {
          "internalType": "address",
          "name": "",
          "type": "address"
        }
      ],
      "stateMutability": "view",
      "type": "function"
    },
    {
      "inputs": [],
      "name": "checkAndTransferCollateral",
      "outputs": [],
      "stateMutability": "nonpayable",
      "type": "function"
    },
    {
      "inputs": [],
      "name": "collateralNFT",
      "outputs": [
        {
          "internalType": "address",
          "name": "",
          "type": "address"
        }
      ],
      "stateMutability": "view",
      "type": "function"
    },
    {
      "inputs": [],
      "name": "interestRate",
      "outputs": [
        {
          "internalType": "uint256",
          "name": "",
          "type": "uint256"
        }
      ],
      "stateMutability": "view",
      "type": "function"
    },
    {
      "inputs": [
        {
          "internalType": "address",
          "name": "_lender",
          "type": "address"
        }
      ],
      "name": "lendLoan",
      "outputs": [],
      "stateMutability": "payable",
      "type": "function"
    },
    {
      "inputs": [],
      "name": "lender",
      "outputs": [
        {
          "internalType": "address",
          "name": "",
          "type": "address"
        }
      ],
      "stateMutability": "view",
      "type": "function"
    },
    {
      "inputs": [],
      "name": "loanAmount",
      "outputs": [
        {
          "internalType": "uint256",
          "name": "",
          "type": "uint256"
        }
      ],
      "stateMutability": "view",
      "type": "function"
    },
    {
      "inputs": [],
      "name": "loanExpiration",
      "outputs": [
        {
          "internalType": "uint256",
          "name": "",
          "type": "uint256"
        }
      ],
      "stateMutability": "view",
      "type": "function"
    },
    {
      "inputs": [],
      "name": "loanManager",
      "outputs": [
        {
          "internalType": "address",
          "name": "",
          "type": "address"
        }
      ],
      "stateMutability": "view",
      "type": "function"
    },
    {
      "inputs": [
        {
          "internalType": "address",
          "name": "_lender",
          "type": "address"
        },
        {
          "internalType": "uint256",
          "name": "_amount",
          "type": "uint256"
        }
      ],
      "name": "makePayment",
      "outputs": [],
      "stateMutability": "payable",
      "type": "function"
    },
    {
      "inputs": [
        {
          "internalType": "address",
          "name": "",
          "type": "address"
        }
      ],
      "name": "paidInstallments",
      "outputs": [
        {
          "internalType": "uint256",
          "name": "",
          "type": "uint256"
        }
      ],
      "stateMutability": "view",
      "type": "function"
    },
    {
      "inputs": [],
      "name": "remainingAmount",
      "outputs": [
        {
          "internalType": "uint256",
          "name": "",
          "type": "uint256"
        }
      ],
      "stateMutability": "view",
      "type": "function"
    },
    {
      "inputs": [],
      "name": "sGho",
      "outputs": [
        {
          "internalType": "contract IVariableDebtToken",
          "name": "",
          "type": "address"
        }
      ],
      "stateMutability": "view",
      "type": "function"
    }
  ],
  "bytecode": "0x60806040819052600880546001600160a01b0319908116732f39d218133afab8f2b819b1066c7e434ad94e9e9081179092556009805490911673786dbff3f1292ae8f92ea68cf93c30b34b1ed04b17905563026b1d5f60e01b82529063026b1d5f90608490602090600481865afa15801561007e573d6000803e3d6000fd5b505050506040513d601f19601f820116820180604052508101906100a291906101ae565b600a80546001600160a01b03929092166001600160a01b0319928316179055600b80548216736b175474e89094c44da98b954eedeac495271d0f908117909155600c805483167340d16fc0246ad3160ccc09b8d0d3a2cd28ae6c2f179055600d805490921617905534801561011657600080fd5b50604051610f04380380610f04833981016040819052610135916101d0565b600080546001600160a01b039889166001600160a01b031991821617909155600780549789169782169790971790965560018590556002949094556003929092556004805491909516931692909217909255600655600f5561023a565b80516001600160a01b03811681146101a957600080fd5b919050565b6000602082840312156101c057600080fd5b6101c982610192565b9392505050565b600080600080600080600060e0888a0312156101eb57600080fd5b6101f488610192565b965061020260208901610192565b9550604088015194506060880151935061021e60808901610192565b925060a0880151915060c0880151905092959891949750929550565b610cbb806102496000396000f3fe6080604052600436106101295760003560e01c80639d585f7f116100a5578063b3ccbcfe11610074578063bd2f288211610059578063bd2f28821461030d578063f6062a5814610323578063f98cf07c1461034357600080fd5b8063b3ccbcfe146102cd578063bcead63e146102ed57600080fd5b80639d585f7f1461026e578063a50a1fe614610284578063ae07e5231461029a578063b1c660f7146102ad57600080fd5b8063431ab0e3116100fc5780637c3a00fd116100e15780637c3a00fd1461020b5780637df1f1b9146102215780638af8e4d01461024157600080fd5b8063431ab0e3146101cb5780637535d246146101eb57600080fd5b80630542975c1461012e5780630fe550d11461016b5780631bed2de81461018f578063265846ca146101a6575b600080fd5b34801561013a57600080fd5b5060085461014e906001600160a01b031681565b6040516001600160a01b0390911681526020015b60405180910390f35b34801561017757600080fd5b5061018160065481565b604051908152602001610162565b34801561019b57600080fd5b506101a4610356565b005b3480156101b257600080fd5b506101bb610472565b6040519015158152602001610162565b3480156101d757600080fd5b5060045461014e906001600160a01b031681565b3480156101f757600080fd5b50600a5461014e906001600160a01b031681565b34801561021757600080fd5b5061018160035481565b34801561022d57600080fd5b5060005461014e906001600160a01b031681565b34801561024d57600080fd5b5061018161025c366004610bfe565b600e6020526000908152604090205481565b34801561027a57600080fd5b5061018160015481565b34801561029057600080fd5b5061018160025481565b6101a46102a8366004610bfe565b610512565b3480156102b957600080fd5b50600c5461014e906001600160a01b031681565b3480156102d957600080fd5b5060075461014e906001600160a01b031681565b3480156102f957600080fd5b5060055461014e906001600160a01b031681565b34801561031957600080fd5b50610181600f5481565b34801561032f57600080fd5b5060095461014e906001600160a01b031681565b6101a4610351366004610c20565b6107de565b600f544210156103ad5760405162461bcd60e51b815260206004820152601060248201527f4c6f616e2068617320657870697265640000000000000000000000000000000060448201526064015b60405180910390fd5b6000600254116103ff5760405162461bcd60e51b815260206004820152601260248201527f4c6f616e2069732066756c6c792070616964000000000000000000000000000060448201526064016103a4565b600480546005546006546040516323b872dd60e01b815230948101949094526001600160a01b039182166024850152604484015216906323b872dd90606401600060405180830381600087803b15801561045857600080fd5b505af115801561046c573d6000803e3d6000fd5b50505050565b600d54600a546001546040517f095ea7b30000000000000000000000000000000000000000000000000000000081526001600160a01b0392831660048201526024810191909152600092919091169063095ea7b3906044016020604051808303816000875af11580156104e9573d6000803e3d6000fd5b505050506040513d601f19601f8201168201806040525081019061050d9190610c4a565b905090565b600580547fffffffffffffffffffffffff0000000000000000000000000000000000000000166001600160a01b03838116918217909255600a54600b546001546040517f617ba037000000000000000000000000000000000000000000000000000000008152918516600483015260248201526044810192909252600060648301529091169063617ba03790608401600060405180830381600087803b1580156105bb57600080fd5b505af11580156105cf573d6000803e3d6000fd5b50506009546001546040517fc04a8a1000000000000000000000000000000000000000000000000000000000815230600482015260248101919091526001600160a01b03909116925063c04a8a109150604401600060405180830381600087803b15801561063c57600080fd5b505af1158015610650573d6000803e3d6000fd5b5050600a54600c546001546040517fa415bcad0000000000000000000000000000000000000000000000000000000081526001600160a01b0392831660048201526024810191909152600260448201526000606482015285821660848201529116925063a415bcad915060a401600060405180830381600087803b1580156106d757600080fd5b505af11580156106eb573d6000803e3d6000fd5b5050600c546040516370a0823160e01b8152306004820152600093506001600160a01b0390911691506370a0823190602401602060405180830381865afa15801561073a573d6000803e3d6000fd5b505050506040513d601f19601f8201168201806040525081019061075e9190610c6c565b600c5460005460405163a9059cbb60e01b81526001600160a01b03918216600482015260248101849052929350169063a9059cbb906044016020604051808303816000875af11580156107b5573d6000803e3d6000fd5b505050506040513d601f19601f820116820180604052508101906107d99190610c4a565b505050565b6000600254116108305760405162461bcd60e51b815260206004820152601160248201527f4c6f616e20616c7265616479207061696400000000000000000000000000000060448201526064016103a4565b600c546040517fdd62ed3e000000000000000000000000000000000000000000000000000000008152336004820152306024820152829182916001600160a01b039091169063dd62ed3e90604401602060405180830381865afa15801561089b573d6000803e3d6000fd5b505050506040513d601f19601f820116820180604052508101906108bf9190610c6c565b101561090d5760405162461bcd60e51b815260206004820152600560248201527f4572726f7200000000000000000000000000000000000000000000000000000060448201526064016103a4565b600c546040516323b872dd60e01b8152336004820152306024820152604481018490526001600160a01b03909116906323b872dd906064016020604051808303816000875af1158015610964573d6000803e3d6000fd5b505050506040513d601f19601f820116820180604052508101906109889190610c4a565b50600c546040516370a0823160e01b81523060048201526000916001600160a01b0316906370a0823190602401602060405180830381865afa1580156109d2573d6000803e3d6000fd5b505050506040513d601f19601f820116820180604052508101906109f69190610c6c565b90506002548114610a6f5760405162461bcd60e51b815260206004820152602960248201527f4c6f616e20616d6f756e74206973206c657373207468616e2072656d61696e6960448201527f6e6720616d6f756e74000000000000000000000000000000000000000000000060648201526084016103a4565b600c5460405163a9059cbb60e01b81526001600160a01b038681166004830152602482018490529091169063a9059cbb906044016020604051808303816000875af1158015610ac2573d6000803e3d6000fd5b505050506040513d601f19601f82011682018060405250810190610ae69190610c4a565b50600480546000546006546040516323b872dd60e01b815230948101949094526001600160a01b039182166024850152604484015216906323b872dd90606401600060405180830381600087803b158015610b4057600080fd5b505af1158015610b54573d6000803e3d6000fd5b5050600754600080546040517fdbde2d6e0000000000000000000000000000000000000000000000000000000081526001600160a01b0391821660048201526024810192909252909116925063dbde2d6e9150604401600060405180830381600087803b158015610bc457600080fd5b505af1158015610bd8573d6000803e3d6000fd5b5050505050505050565b80356001600160a01b0381168114610bf957600080fd5b919050565b600060208284031215610c1057600080fd5b610c1982610be2565b9392505050565b60008060408385031215610c3357600080fd5b610c3c83610be2565b946020939093013593505050565b600060208284031215610c5c57600080fd5b81518015158114610c1957600080fd5b600060208284031215610c7e57600080fd5b505191905056fea26469706673582212200426166379f13f5066632d5cb1d2505db94b2880d82dc11684255a32bbd156e964736f6c63430008140033",
  "linkReferences": {},
  "deployedLinkReferences": {}
}