{
  "_format": "hh-sol-artifact-1",
  "contractName": "OnChainVerifier",
  "sourceName": "contracts/AnonAadhar/OnChainVerifier.sol",
  "abi": [
    {
      "inputs": [],
      "stateMutability": "nonpayable",
      "type": "constructor"
    },
    {
      "inputs": [],
      "name": "anonAadhaarVerifierAddr",
      "outputs": [
        {
          "internalType": "address",
          "name": "",
          "type": "address"
        }
      ],
      "stateMutability": "view",
      "type": "function"
    },
    {
      "inputs": [
        {
          "internalType": "address",
          "name": "_newAdd",
          "type": "address"
        }
      ],
      "name": "changeVerifierAddress",
      "outputs": [],
      "stateMutability": "nonpayable",
      "type": "function"
    },
    {
      "inputs": [
        {
          "internalType": "uint256",
          "name": "",
          "type": "uint256"
        }
      ],
      "name": "verifiedNullifiers",
      "outputs": [
        {
          "internalType": "bool",
          "name": "",
          "type": "bool"
        }
      ],
      "stateMutability": "view",
      "type": "function"
    },
    {
      "inputs": [
        {
          "internalType": "uint256",
          "name": "identityNullifier",
          "type": "uint256"
        },
        {
          "internalType": "uint256",
          "name": "userNullifier",
          "type": "uint256"
        },
        {
          "internalType": "uint256",
          "name": "timestamp",
          "type": "uint256"
        },
        {
          "internalType": "uint256",
          "name": "signal",
          "type": "uint256"
        },
        {
          "internalType": "uint256[8]",
          "name": "groth16Proof",
          "type": "uint256[8]"
        }
      ],
      "name": "verifyIdentity",
      "outputs": [],
      "stateMutability": "nonpayable",
      "type": "function"
    }
  ],
  "bytecode": "0x608060405234801561001057600080fd5b50600280546001600160a01b0319908116730a490c2c99a3002e5cf91caeb8049ae55f8f4edd179091556001805490911633179055610443806100546000396000f3fe608060405234801561001057600080fd5b506004361061004c5760003560e01c80630dbffbcd14610051578063205717071461008157806356397a2014610096578063e7ba78af146100a9575b600080fd5b600254610064906001600160a01b031681565b6040516001600160a01b0390911681526020015b60405180910390f35b61009461008f366004610277565b6100dc565b005b6100946100a43660046102d6565b610175565b6100cc6100b7366004610380565b60006020819052908152604090205460ff1681565b6040519015158152602001610078565b6001546001600160a01b0316331461013b5760405162461bcd60e51b815260206004820152601560248201527f4f6e6c792061646d696e2063616e20766572696679000000000000000000000060448201526064015b60405180910390fd5b600280547fffffffffffffffffffffffff0000000000000000000000000000000000000000166001600160a01b0392909216919091179055565b6002546040517fd2955cd60000000000000000000000000000000000000000000000000000000081526001600160a01b039091169063d2955cd6906101c69088908890889088908890600401610399565b602060405180830381865afa1580156101e3573d6000803e3d6000fd5b505050506040513d601f19601f8201168201806040525081019061020791906103eb565b15156001146102585760405162461bcd60e51b815260206004820152601860248201527f50726f6f662073656e74206973206e6f742076616c69642e00000000000000006044820152606401610132565b5050506000908152602081905260409020805460ff1916600117905550565b60006020828403121561028957600080fd5b81356001600160a01b03811681146102a057600080fd5b9392505050565b7f4e487b7100000000000000000000000000000000000000000000000000000000600052604160045260246000fd5b60008060008060006101808087890312156102f057600080fd5b863595506020808801359550604088013594506060880135935088609f89011261031957600080fd5b604051610100810181811067ffffffffffffffff8211171561033d5761033d6102a7565b60405291880191808a84111561035257600080fd5b60808a015b8481101561036e5780358252908301908301610357565b50508093505050509295509295909350565b60006020828403121561039257600080fd5b5035919050565b60006101808201905086825260208681840152856040840152846060840152608083018460005b60088110156103dd578151835291830191908301906001016103c0565b505050509695505050505050565b6000602082840312156103fd57600080fd5b815180151581146102a057600080fdfea26469706673582212200ae9509b6a49603f480d2f7ac34d253ef3607200ff19e5ee9ec3596488491b0264736f6c63430008140033",
  "linkReferences": {},
  "deployedLinkReferences": {}
}